:1000000000180020C100000035160000F91500009E
:10001000F9150000F9150000F9150000F9150000A8
:10002000F9150000F9150000F9150000351600005B
:1000300035160000F91500007D1400004D15000074
:100040003516000035160000351600003516000084
:100050003516000035160000351600003516000074
:100060003516000035160000351600003516000064
:100070006D160000451700001D1800003516000021
:100080003516000035160000351600003516000044
:100090003516000035160000351600003516000034
:1000A0002108000035160000351600003516000046
:1000B0003516000035160000351600003516000014
:1000C000F8B501F0BBFA0821474A484B1A60484A84
:1000D000484B1A60484A494B1A60494B1A780A4201
:1000E00002D01A780A431A702A22464B46481A70E0
:1000F00000234649464C1A188A4203D2E558043375
:100100001560F8E70021434B434A934201D202C3F2
:10011000FBE70023414A424958589446985004331B
:10012000C02BF9D100210326FF2580248A083D4BEE
:100130009200D2180B002F003340DB009F40106864
:100140000131B84307002000984003003B4313608F
:100150002029EBD16246344B1A608A22334B1A7045
:10016000334B663A5A707C321A709E3A9979114232
:10017000FCD0102299791142FCD10C209A792C499B
:100180000240082AFAD1053A0A713D324A71203AF2
:1001900099791142FCD0402299791142FCD025492D
:1001A000254A11602021224A117014399A790A4097
:1001B0000C2AFBD1214A224B1A60224A224B1A6098
:1001C0000022224B1A60224B07321A60214A224B2E
:1001D0001A6062B600F00AFA01F0B6FC01F034FAD7
:1001E00000F087F9FEE7C046300004F03480044098
:1001F000823F0000388004400100000F3C80044032
:1002000002D0074000E0074040FEFF1F38FFFF1FFD
:100210005C1D000038FFFF1F9002002000F9FF1F47
:100220000000000000E400E008ED00E0005006409F
:10023000004006400000011044800440C000050555
:10024000048004407FBB000014E000E018E000E000
:1002500010E000E00000202020ED00E0FFFFFFFFA5
:10026000FFFFFFFFFFFFFFFFFFFFFFFFFFFFFFFF9E
:10027000FFFFFFFFFFFFFFFFFFFFFFFFFFFFFFFF8E
:10028000FFFFFFFFFFFFFFFFFFFFFFFFFFFFFFFF7E
:10029000FFFFFFFFFFFFFFFFFFFFFFFFFFFFFFFF6E
:1002A000FFFFFFFFFFFFFFFFFFFFFFFFFFFFFFFF5E
:1002B000FFFFFFFFFFFFFFFFFFFFFFFFFFFFFFFF4E
:1002C000FFFFFFFFFFFFFFFFFFFFFFFFFFFFFFFF3E
:1002D000FFFFFFFFFFFFFFFFFFFFFFFFFFFFFFFF2E
:1002E000FFFFFFFFFFFFFFFFFFFFFFFFFFFFFFFF1E
:1002F000FFFFFFFFFFFFFFFFFFFFFFFFFFFFFFFF0E
:10030000FFFFFFFFFFFFFFFFFFFFFFFFFFFFFFFFFD
:10031000FFFFFFFFFFFFFFFFFFFFFFFFFFFFFFFFED
:10032000FFFFFFFFFFFFFFFFFFFFFFFFFFFFFFFFDD
:10033000FFFFFFFFFFFFFFFFFFFFFFFFFFFFFFFFCD
:10034000FFFFFFFFFFFFFFFFFFFFFFFFFFFFFFFFBD
:10035000FFFFFFFFFFFFFFFFFFFFFFFFFFFFFFFFAD
:10036000FFFFFFFFFFFFFFFFFFFFFFFFFFFFFFFF9D
:10037000FFFFFFFFFFFFFFFFFFFFFFFFFFFFFFFF8D
:10038000FFFFFFFFFFFFFFFFFFFFFFFFFFFFFFFF7D
:10039000FFFFFFFFFFFFFFFFFFFFFFFFFFFFFFFF6D
:1003A000FFFFFFFFFFFFFFFFFFFFFFFFFFFFFFFF5D
:1003B000FFFFFFFFFFFFFFFFFFFFFFFFFFFFFFFF4D
:1003C000FFFFFFFFFFFFFFFFFFFFFFFFFFFFFFFF3D
:1003D000FFFFFFFFFFFFFFFFFFFFFFFFFFFFFFFF2D
:1003E000FFFFFFFFFFFFFFFFFFFFFFFFFFFFFFFF1D
:1003F000FFFFFFFFFFFFFFFFFFFFFFFFFFFFFFFF0D
:10040000FFFFFFFFFFFFFFFFFFFFFFFFDEF9FFFF23
:1004100010B5064C2378002B07D1054B002B02D0DA
:10042000044800E000BF0123237010BD38FFFF1F08
:10043000000000005C1D0000084B10B5002B03D02D
:100440000749084800E000BF07480368002B00D1B7
:1004500010BD064B002BFBD09847F9E700000000C9
:100460003CFFFF1F5C1D000038FFFF1F0000000065
:1004700010B50800182101F043FB0C23CAB2534306
:100480001900034841181B580A7A1A7110BDC0465A
:10049000941B000010B50800182101F031FB0C235B
:1004A000CAB253431900034841181B580A7A1A72FA
:1004B00010BDC046941B000010B50024E0B201211D
:1004C000013400F01FF8182CF8D1034A034B1A60CE
:1004D000034A044B1A6010BD710400009400002010
:1004E000950400008C00002010B5002000F04CFDA9
:1004F00010BD10B5FFF7E0FFFFF7F6FF00F042FF79
:10050000FAE7FFFFF0B51A282FD80C22170047434F
:10051000164CE5196B682600012901D0042911D178
:10052000504334583018257D027A20202A43227502
:10053000A22252001A601A68042901D1024313E072
:10054000824311E038592C7A027DA2430275802241
:10055000002908D0022902D10422FF3204E000223F
:10056000032901D1812252001A60F0BD941B0000C2
:1005700072B60C4B1A680C4B18680C4B1B6862B6B1
:100580005B0104D5322393429B415B42C018084B68
:100590009A1A084B5A43FA239B005843920D10189D
:1005A0007047C04618E000E054FFFF1F04ED00E074
:1005B0007FBB00005555010070B50400FFF7D8FF60
:1005C0000500002C0FD0FFF7D3FF074B401B9842CC
:1005D00006D9013C002C06D0FA239B00ED18F2E767
:1005E00000F0D0FEEFE770BDE703000080221E4B55
:1005F000D20510B51A608022002012061A601B4B2B
:100600001B4918601B4B1C4A1960282313601B4AA6
:100610001B4C13601B4A13601B4A13601B4A136078
:100620001B4A1360092222601A4C20601A4C216078
:100630001A4C23601A4C23601A4C22601A4C20601A
:100640001A4801601A490B601A490B601A4B1A606C
:1006500000F08AFF1920FFF7AFFF00F0C1FB142064
:10066000FF30FFF7A9FF10BD00E100E00480034068
:10067000FFBF0000088003400C800340148003404B
:10068000008003401C800340248003402C800340F2
:100690003480034004900340089003400C900340D2
:1006A000149003400090034004A0034008A00340BE
:1006B0000CA0034014A0034000A003400223F0B5A7
:1006C0000A4A0B4E1478C8272343DB00F5186860EC
:1006D00008480578002D00D1403F09040F43F7502A
:1006E00001235D405C4005701470F0BDC0FFFF1F2A
:1006F00000F8FF1F38000020431E10B50020032B18
:100700000ED872B6074A99008858002807D0446866
:100710005B008C50044904885A5A121B5A5262B624
:1007200010BDC046B0FFFF1F42020020F8B572B6F0
:100730000123174A082594461E00164964465A1E8E
:10074000A25C2A421AD05F017C589A00002C05D185
:10075000CB1908305860104BCB5109E03243D2001E
:100760005458002C0AD18B18083058600B4B8B5012
:100770000B4A1378013B137062B608E00133052B76
:10078000DCD162B60022064B1A7000F09FFBF8BD68
:10079000D81C000000F8FF1F88004000C80040007F
:1007A0002E000020421E10B5032A30D802238000FC
:1007B0001843174BC0001B1872B6164CA05C0328D8
:1007C0000BD801F003F916040207052012E00833E4
:1007D00002200FE0083304200CE00F489200145868
:1007E0000E4B002C01D1115001E0985841609950F6
:1007F0000CE00320A0540A0008325A60C8221807EF
:1008000000D4403A098809040A431A6062B610BD50
:1008100000F8FF1F6CFFFF1F0400002014000020E1
:10082000F7B5B04B1C781D000423E4B21C421FD066
:10083000AD4B1B78002B18D0AC4A1378DBB2002BE1
:1008400005D0013BDBB21370002B00D100BEA84ADB
:100850001378DBB2002B06D0013BDBB21370002B08
:1008600001D100F073FD00F077FB04229D4B1A705C
:100870000822224000D149E29E4B9F4F1B78DBB2F9
:100880009C08E4001D093C19002D00D0CFE122682E
:1008900063689006000F01380C2800D9C3E101F00D
:1008A0009FF880018001C201C201C201C201C201E0
:1008B000C2019F01C201C201C2010D001A688F4E20
:1008C0005B688F49736000230B6001218D483260A3
:1008D00020608D4C92B221708C4C3B61BB610190C9
:1008E000A24218D8D020C000824200D3E1E081208B
:1008F0004000824200D1BDE006D8802A00D1A3E0AA
:10090000822A00D1A5E0E9E0814B9A4200D1C0E003
:10091000FF33FF3313E090231B019A4213D009D811
:10092000803B9A4200D0D9E06F4B7A4C1B78237001
:100930000B000FE1784B9A4200D12FE1774B9A429E
:1009400000D105E1CAE03C003D00B278664B20349E
:100950001A70A03580222368134203D060680838DB
:1009600000F0B4FA0834AC42F4D1002425006C4BFA
:10097000E058002805D04368009300F0A7FA0098DB
:10098000F7E7674B1851674BE050674BE05800287A
:1009900005D04368009300F099FA0098F7E7624B9E
:1009A000624A1851624BE0506B00D052614BE85CD8
:1009B0000238032807D801F009F8020402040022D3
:1009C00000E001225A5501350434042DCFD1002313
:1009D0000124594D2B70594B5949621EE3188A5C0A
:1009E0009B001A7008231A4220D000F051FA6301CC
:1009F000002805D0FA1808305060524AFA5003E037
:100A0000F8502B7801332B7000F042FA0122A3003A
:100A10001343DB00002805D0FA1808305060019A13
:100A2000FA5003E0F8502B789B182B70022100231A
:100A3000A2001143C9007B5003210A438A400134BC
:100A4000BB50052CC7D184E0324C23706370022365
:100A500080E07F22B0880240042A3FD82D4C9200CB
:100A600023706370384BD218022312781A4271D067
:100A700021706FE07F23B2881A40042A2ED8738831
:100A8000002B2BD10220304992005218117881435B
:100A90000DE07F23B2881A40042A1FD87388002BE8
:100AA0001CD102202849920052181178014311707C
:100AB0004FE07288B188254B5C68002C0ED01888F6
:100AC000904209D15888884206D1120A032A01D1DE
:100AD00023783FE01B893DE00C33EDE70F221A4BF2
:100AE0001A705BE08020074037000020C1FFFF1F25
:100AF000A40000209020074000F8FF1F24000020E1
:100B000058FFFF1FC8004000380000208106000089
:100B1000020300002F00002021090000210A00002C
:100B2000B0FFFF1F5CFFFF1F0400002042020020F7
:100B3000140000206CFFFF1F2E00002030C80110A1
:100B4000D81C000088004000C0200740DC1C0000CA
:100B500000231C00F5889D4200D91D002E00402D69
:100B600000D9402620003100FFF7A8FDA419AD1BD5
:100B700003D12F00402E04D010E04027AF4200D90F
:100B80002F0020003900FFF799FDE419ED1B01D17A
:100B9000402F03D1794B1C60794B1D800122794B8A
:100BA00040E0794A79491068884216D178495268FC
:100BB0008A4212D11A78A92A0FD15A78452A0CD123
:100BC0009A78C22A09D1DB786B2B06D10021714BB0
:100BD000BD3A08001A70FFF771FD6F4B236022E0E9
:100BE000664F3E68002E13D0654B1C882500402CB4
:100BF00000D9402529003000FFF760FD641B604BE1
:100C0000A4B21C80002C01D1402D00D174193C608D
:100C1000A0225D4BD2001988914204D100225A7063
:100C20009A785E4B1A700122564B1A706AE00822BD
:100C30006068013D0838EDB2134037D000F046F946
:100C40005749A8004258574B002A1CD056684650B6
:100C50001100585D0831616003280BD800F0B6FE22
:100C600002040608032104E0022102E0052100E05D
:100C7000042159550821C8230C4200D1403B128859
:100C8000120413433DE0585D032808D800F09EFE8F
:100C90003A3A0204002200E001225A5532E00822CA
:100CA0001440621E944102345C552BE02268110C02
:100CB0008AB2028000291ED03B4943804360AB00CA
:100CC0005F583A4E002F01D1585001E0F15848606A
:100CD00037496D00F0506B5AD2186A5200F0D8F8BC
:100CE000002802D00830606005E0324A20601378A6
:100CF0000133137006E008231C4201D12E4B00E0A3
:100D0000254B236008222D4B1A708AE501200442EE
:100D10001ED002231B49284C0B70294B294E1A70F8
:100D2000294B1C609C60294C1A61DC600D249A617F
:100D30005E60274B1C70FF23264C2370174C2B70D2
:100D40002270254A13709F22244B1A70087013E0FA
:100D500063B2002B04DA0D221D4B1A7080232B7016
:100D60000222144204D01B490B78DBB20B702A70AC
:100D700010231C4200D02B70F7BDC04658FFFF1F48
:100D80002C000020942007402400002021090003AB
:100D900001000400C1FFFF1FC80040009820074069
:100DA000040000206CFFFF1FB0FFFF1F5CFFFF1F50
:100DB000420200202E0000208800400080200740D2
:100DC000C0FFFF1F70FFFF1F00F8FF1FC4FFFF1FC2
:100DD000C0200740882007408C200740842007401F
:100DE00010B500F08DFD002211001B4BD15098185A
:100DF00008324160882AF9D180201849C0020A6867
:100E000002430A601A0A1649D2B20A701A0C15492E
:100E1000D2B20A70144A1B0E1370FF23134A00202B
:100E20001370134A13491370134A137001220A7086
:100E30001249087012490A70124A116899430B004E
:100E400070210B43136080220F4B52041A60102252
:100E50000E4B1A7010BDC04600F8FF1F34800440CE
:100E60009C200740B0200740B42007408020074066
:100E700088200740942007401020074000210740A9
:100E80008420074018E400E000E100E0082107406A
:100E900070B572B60B4D2C68200000F037FE0F289D
:100EA00002DD62B600200CE080231B06C3409C4399
:100EB0002C6062B648235843034B18180023036084
:100EC000436070BD40FEFF1FC0F9FF1F10B5040056
:100ED0000E484821201A00F08DFD0F2814D80C4B25
:100EE0001B78002B07D00B4B1B78002B03D0200066
:100EF000FFF71CFC08E072B680231B06C340064ABD
:100F000011680B43136062B610BDC046C0F9FF1FE5
:100F10002E0000203700002040FEFF1F0B4B70B555
:100F20001B6805000A4C002B07D021883B2904D9F7
:100F30000022084898470023238023883B2B03D8AE
:100F40005A1C2280034AD55470BDC0466000002060
:100F50004C0200205202002070B5094B1D78002D74
:100F60000CD1084C2168002908D04B88002B05D0F3
:100F70009B000B800320FFF715FC256070BDC04669
:100F8000500000207C000020F7B5B44E019033687B
:100F90003500002B13D1B24B1B78002B00D1A7E1F9
:100FA0000420FFF7A9FB3060002800D1A0E10488ED
:100FB000002C04D1FFF78AFF3460200099E12868F3
:100FC00043889A08920082189468028804339342F6
:100FD00001D2438005E0FFF779FF0420FFF78CFB87
:100FE00028600F23250022099E491A401D40260A29
:100FF00037000A702A001F40083A0137062A7FD8B6
:10100000019A002A02D0974200D071E1220B1340CE
:10101000082D07D1082B00D06AE18022924B1A706C
:10102000924B21E0092D16D1092B00D060E1220E50
:101030008D4B210C002A07D0902018708C4BD2B217
:101040001B68002B15D152E080201870874B1B685D
:10105000002B0ED14BE00A2D0FD10A2B00D047E117
:10106000A022814B1A70834B1B68002B3FD0220EAD
:10107000210CC9B2F8B2984739E00B2D07D10B2BE0
:1010800000D035E1B022784B1A707B4BECE70C2D89
:1010900007D10C2B00D02BE1C022734B1A70774B79
:1010A00008E00D2D0ED10D2B00D021E1D0226E4B8A
:1010B0001A70734B1B68002B19D0210CC9B2F8B2FF
:1010C000984714E00E2B00D012E1E022664B1A7014
:1010D0006C4B1B68002B0AD0FE226102480E920165
:1010E000610C1140684A01438918F8B29847674B70
:1010F000220C1F70664B240E1A70664B1C70AAE0FF
:10110000AB1EF0B2012B05D9052D6DD1F02879D990
:10111000F72877D0F1380E2800D9E9E000F056FC26
:10112000080A17E8E81EE823E82D3741E84B550088
:10113000594B0DE0594B1A68002A52D0FE23600229
:10114000410E9B01600C18400843904749E0544B06
:101150001B68200CC0B2002B42D142E0514B1B68EF
:10116000002B36D13DE0504B1B68002B31D14F4B4B
:10117000F8201B68002B33D133E04D4B1B68002B4C
:1011800027D14A4BFA201B68002B29D129E0494B73
:101190001B68002B1DD1454BFB201B68002B1FD16A
:1011A0001FE0454B1B68002B13D1404BFC201B68F4
:1011B000002B15D115E0414B1B68002B09D13B4B8F
:1011C000FE201B68002B0BD10BE03D4B1B68002B56
:1011D00001D0984705E0354B1B68002B01D0FF205C
:1011E0009847214B1E7082E7042D08D1F0B2FFF71B
:1011F00095FE200CC0B2FFF791FE200E76E06B1F2B
:10120000022B67D8F0B2FFF789FE052D08D0200C1D
:10121000C0B2FFF783FE072D02D1200EFFF77EFE3E
:10122000284B1B4A198811701A4A080A10700022AC
:101230001A800D4BF0321A70234B1B68002B03D021
:10124000EF3A2248984706E0214B01201B68002B0B
:101250004FD01E48984701204BE0C0468400002034
:1012600037000020500200204A0200208C0000209D
:101270009400002064000020900000205400002012
:10128000680000205800002000E0FFFF510200200D
:101290004E0200204F020020700000205C00002061
:1012A00088000020740000203C000020480000203E
:1012B0006C0000204C000020800000204400002032
:1012C000400000204C02002060000020520200205C
:1012D000780000200F2D0BD1F72800D91AE7F0284D
:1012E00003D0044B1B88002B02D0F0B2FFF716FE90
:1012F0000020FEBD4C02002070B5124C2368002B6C
:1013000004D0206842880188130010E00E4B1B783F
:10131000002B03D00220FFF7EFF920602568002D95
:10132000EFD10CE0C618367A002E03D001339D1A97
:101330008B42F7DB002D02D1FFF7C8FD25602800A6
:1013400070BDC046A00000203700002010B50B4B38
:101350001B78DBB2002B0FD1094C21684A883F2A49
:1013600003DC881803720132F9E7402301200B8067
:10137000FFF718FA0023236010BDC0469800002034
:101380009C00002070B5234C2378002B40D1013302
:101390002370FFF7B1FF002801D000F0EDFA00F054
:1013A00055F9002801D000F0DBF800F0BBF9002867
:1013B00001D000F0D6F800F021FA002801D000F0AA
:1013C000D1F800232370EFF30583002B20D1EFF336
:1013D000108272B6104D2868002803D00F4C217877
:1013E000002903D0002A13D162B611E00123237033
:1013F00043692B60002B01D0996101E008490B6023
:10140000002A00D162B60025836845779847257089
:1014100070BDC046A5000020B8000020BC00002020
:10142000B4000020EFF3108072B643425841C0B2BE
:101430007047002800D062B67047FFFF10B5FFF775
:10144000F1FF0C4A1468002C10D063691360002B64
:1014500002D000229A6101E0074A1360FFF7E9FF1A
:10146000002320006377A3689847E8E7FFF7E1FFD0
:1014700010BDC046A8000020AC00002010B5FFF74A
:10148000DDFF10BD164930B50B68002B02D183601B
:10149000C36009E004681A68944207D20025121B51
:1014A0008360C560D8601A60086016E002681C6836
:1014B0009968121B026000290CD00C680B00A24234
:1014C000F4D28160C968A21AC160D860C16888601E
:1014D0001A6002E08160C36098600223037530BD2A
:1014E000B000002070B5174D2C68002C19D023686F
:1014F000002B02D0013B236013E0A268002A00D039
:10150000D360002120692A60036821751B682200CE
:1015100098476368002BE7D023602000FFF7B2FFF5
:10152000E2E7FFF77FFF0022074B1C681A60FFF716
:1015300080FF002C05D0A5682000FFF7A3FF2C003A
:10154000F7E770BDB0000020C000002010B5034ACE
:10155000136801331360FFF7C5FF10BD54FFFF1F71
:10156000704770477047FFFF1B4B1C4A19781C4B94
:10157000082901D1002102E00A2903D12E3111608E
:10158000132206E00C2901D1283100E03C21116032
:1015900012221A60134B1A78134B002A01D0002232
:1015A00000E001221A60114B1A78114B012A01D870
:1015B00080220CE0042A01D8842208E0082A01D8FD
:1015C000852204E0102A01D8862200E087221A60D2
:1015D0000122084B1A70704744FEFF1F08B00340F9
:1015E0000CB00340C500002020B0034045FEFF1FA3
:1015F00024B00340C400002070B580258026ED0291
:10160000F6000B4C23682B4201D0FFF709F9236841
:10161000334201D000F02AF823681B0501D500F001
:1016200091F82368DB04ECD500F0F8F8E9E7C04650
:101630003480044010B5FFF7DFFFFFFF0022014BAD
:101640001A607047008104407047FFFF054B18780F
:10165000054BC0B21A78D3B2984200D24030C01ABB
:101660007047C04649010020C700002030B5234A1A
:1016700013799B0611D5224BD479187819000130C3
:10168000E4B200233F2800DC03001E4800788342B8
:1016900003D01D48C454DBB20B70D1781748C9B2CF
:1016A0004BB2002B17DA03795BB2002B13DA174B1E
:1016B000174C1D782378DBB29D4202D16C23C37096
:1016C00009E001333F2B00D900231248C05CDBB294
:1016D000C0B2D0712370402319420ED01179194243
:1016E0000BD000210C4B19700C4B1B688B4202D0A5
:1016F0000B49097819722C23D37030BD00A0064025
:1017000049010020C70000200801002050010020EE
:101710004A010020C8000020C60000204C01002023
:1017200048010020054B1878054BC0B21A78D3B297
:10173000984200D24030C01A7047C046BC01002019
:101740005201002030B5234A13799B0611D5224B54
:10175000D479187819000130E4B200233F2800DC66
:1017600003001E480078834203D01D48C454DBB2F6
:101770000B70D1781748C9B24BB2002B17DA037936
:101780005BB2002B13DA174B174C1D782378DBB2B2
:101790009D4202D16C23C37009E00133272B00D98D
:1017A00000231248C05CDBB2C0B2D071237040236A
:1017B00019420ED0117919420BD000210C4B19702F
:1017C0000C4B1B688B4202D00B49097819722C23F1
:1017D000D37030BD00B00640BC0100205201002093
:1017E0007B010020C4010020BD0100205301002026
:1017F00051010020C0010020BB010020054B1878DA
:10180000054BC0B21A78D3B2984200D24030C01A09
:101810007047C04638020020CD01002030B52C4A68
:1018200013799B0623D52B4BD479187819000130F6
:10183000E4B200233F2800DC0300274800788342FD
:1018400003D02648C454D8B2087025490868002837
:101850000DD024490978C9B28B4201D35B1A01E04B
:101860005B1A4033272B02DD1F4B1B780371D178A5
:101870001748C9B24BB2002B17DA03795BB2002BC1
:1018800013DA1A4B174C1D782378DBB29D4202D134
:101890006C23C37009E00133272B00D900231448BF
:1018A000C05CDBB2C0B2D0712370402319420ED0AD
:1018B000117919420BD000210E4B19700E4B1B6889
:1018C0008B4202D00D49097819722C23D37030BD98
:1018D00000C0064038020020CD010020F7010020A2
:1018E000C801002039020020F6010020400200203B
:1018F000CE010020CC0100203C0200203702002055
:1019000030B585B072B670224121154B1A70154A58
:101910001170154A3239117080221A701A7852B239
:10192000002AFBDA114B186862B6114B984201D8B5
:101930000A23584301AC0A22210000F01EF80023BC
:101940000C48E15C0500002905D05A0082180133DB
:1019500051800A2BF5D101335B002B7005B030BDEF
:10196000000002400700024006000240080002405A
:101970007F96980020FFFF1F7047F8B506000D0006
:10198000170000243900300000F0BAF80B0037339C
:10199000DBB2092901D83031CBB230002B553900E8
:1019A00000F028F8061E01D00134EBE72B1958701F
:1019B0002B005A1B944206DD1A78295D19702A55AE
:1019C0000133013CF5E72800F8BDFFFF02B4714682
:1019D00049084900095C49008E4402BC7047C04672
:1019E00003B47146490840004900095A49008E4431
:1019F00003BC7047002243088B4274D303098B4217
:101A00005FD3030A8B4244D3030B8B4228D3030CCE
:101A10008B420DD3FF22090212BA030C8B4202D370
:101A20001212090265D0030B8B4219D300E0090A98
:101A3000C30B8B4201D3CB03C01A5241830B8B42A1
:101A400001D38B03C01A5241430B8B4201D34B038A
:101A5000C01A5241030B8B4201D30B03C01A5241EF
:101A6000C30A8B4201D3CB02C01A5241830A8B4274
:101A700001D38B02C01A5241430A8B4201D34B025D
:101A8000C01A5241030A8B4201D30B02C01A5241C1
:101A9000CDD2C3098B4201D3CB01C01A5241830975
:101AA0008B4201D38B01C01A524143098B4201D3AF
:101AB0004B01C01A524103098B4201D30B01C01ADA
:101AC0005241C3088B4201D3CB00C01A5241830854
:101AD0008B4201D38B00C01A524143088B4201D381
:101AE0004B00C01A5241411A00D2014652411046E1
:101AF0007047FFE701B5002000F006F802BDC046C0
:101B00000029F7D076E770477047C0461C210123B3
:101B10001B04984201D3000C10391B0A984201D3D0
:101B2000000A08391B09984201D30009043902A2AE
:101B3000105C40187047C046040302020101010115
:101B400000000000000000000E4B70B500251E00D4
:101B50000D4CE41AA410A54204D0AB00F3589847EA
:101B60000135F8E700F0F0F8084B00251E00084C9E
:101B7000E41AA410A54204D0AB00F35898470135ED
:101B8000F8E770BD541D0000541D0000541D0000F6
:101B9000581D0000420000F840A004400100000071
:101BA000420000F844A0044002000000C00000F819
:101BB00000C0044001000000000000F80490044050
:101BC00002000000000000F808900440040000003B
:101BD000C00000F81CC0044080000000C00000F8F5
:101BE00010C0044010000000C00000F808C004400D
:101BF00004000000C00000F80CC004400800000011
:101C0000800000F80CB0044008000000800000F8DC
:101C100010B0044010000000800000F818B004402C
:101C200040000000800000F81CB00440800000006C
:101C3000800000F814B0044020000000C00000F84C
:101C400004C0044002000000800000F800B004401E
:101C500001000000400000F800A004400100000066
:101C6000400000F804A0044002000000400000F81A
:101C70000CA0044008000000400000F808A0044048
:101C800004000000C00000F814C004402000000060
:101C9000C00000F818C0044040000000800000F8B8
:101CA00004B0044002000000800000F808B00440C6
:101CB00004000000020100F850D0044010000000B1
:101CC000020100F854D0044020000000030100F895
:101CD00078D00440400000001519151900010000DB
:101CE00046FEFF1F120000000002000070FEFF1FF2
:101CF0007300000000220100E3FEFF1F210000002E
:101D000000210100CCFEFF1F0900000000030000BD
:101D10001CFFFF1F000000000103090458FEFF1F05
:101D2000000000000203090404FFFF1F0000000080
:101D30000303090420FFFF1F000000000000000053
:101D40000000000000000000F8B5C046F8BC08BC68
:081D50009E46704739040000B3
:041D5800F8B5C046D4
:101D5C00FFFFFFFF0A041201100100000040C01633
:101D6C008504730201020301180354006500650029
:101D7C006E00730079006400750069006E006F00DE
:101D8C0009027300020100C03209040000020103C1
:101D9C0000000724010001250006240201010006B1
:101DAC002402020200092403010301020100092498
:101DBC0003020401010100090504024000000000B7
:101DCC0005250101010905830240000000000525DD
:101DDC0001010309040100020300000009211101A3
:101DEC0000012221000705810340000107050203C1
:101DFC0020000206C9FF0904A15C7508150026FF26
:101E0C000095400975810295200976910295040987
:101E1C0076B102C018035400650065006E007300B3
:101E2C00790020004D0049004400490004030904D6
:101E3C000C03000000000000000000000000000087
:081E4C0000000000000000008E
:00000001FF
